{
    "contractName": "Seaview",
    "abi": [
        {
            "inputs": [],
            "stateMutability": "nonpayable",
            "type": "constructor"
        },
        {
            "anonymous": false,
            "inputs": [
                {
                    "indexed": true,
                    "internalType": "address",
                    "name": "owner",
                    "type": "address"
                },
                {
                    "indexed": true,
                    "internalType": "address",
                    "name": "spender",
                    "type": "address"
                },
                {
                    "indexed": false,
                    "internalType": "uint256",
                    "name": "value",
                    "type": "uint256"
                }
            ],
            "name": "Approval",
            "type": "event"
        },
        {
            "anonymous": false,
            "inputs": [
                {
                    "indexed": true,
                    "internalType": "address",
                    "name": "from",
                    "type": "address"
                },
                {
                    "indexed": true,
                    "internalType": "address",
                    "name": "to",
                    "type": "address"
                },
                {
                    "indexed": false,
                    "internalType": "uint256",
                    "name": "value",
                    "type": "uint256"
                }
            ],
            "name": "Transfer",
            "type": "event"
        },
        {
            "inputs": [
                {
                    "internalType": "address",
                    "name": "owner",
                    "type": "address"
                },
                {
                    "internalType": "address",
                    "name": "spender",
                    "type": "address"
                }
            ],
            "name": "allowance",
            "outputs": [
                {
                    "internalType": "uint256",
                    "name": "",
                    "type": "uint256"
                }
            ],
            "stateMutability": "view",
            "type": "function",
            "constant": true
        },
        {
            "inputs": [
                {
                    "internalType": "address",
                    "name": "spender",
                    "type": "address"
                },
                {
                    "internalType": "uint256",
                    "name": "amount",
                    "type": "uint256"
                }
            ],
            "name": "approve",
            "outputs": [
                {
                    "internalType": "bool",
                    "name": "",
                    "type": "bool"
                }
            ],
            "stateMutability": "nonpayable",
            "type": "function"
        },
        {
            "inputs": [
                {
                    "internalType": "address",
                    "name": "account",
                    "type": "address"
                }
            ],
            "name": "balanceOf",
            "outputs": [
                {
                    "internalType": "uint256",
                    "name": "",
                    "type": "uint256"
                }
            ],
            "stateMutability": "view",
            "type": "function",
            "constant": true
        },
        {
            "inputs": [],
            "name": "decimals",
            "outputs": [
                {
                    "internalType": "uint8",
                    "name": "",
                    "type": "uint8"
                }
            ],
            "stateMutability": "view",
            "type": "function",
            "constant": true
        },
        {
            "inputs": [
                {
                    "internalType": "address",
                    "name": "spender",
                    "type": "address"
                },
                {
                    "internalType": "uint256",
                    "name": "subtractedValue",
                    "type": "uint256"
                }
            ],
            "name": "decreaseAllowance",
            "outputs": [
                {
                    "internalType": "bool",
                    "name": "",
                    "type": "bool"
                }
            ],
            "stateMutability": "nonpayable",
            "type": "function"
        },
        {
            "inputs": [
                {
                    "internalType": "address",
                    "name": "spender",
                    "type": "address"
                },
                {
                    "internalType": "uint256",
                    "name": "addedValue",
                    "type": "uint256"
                }
            ],
            "name": "increaseAllowance",
            "outputs": [
                {
                    "internalType": "bool",
                    "name": "",
                    "type": "bool"
                }
            ],
            "stateMutability": "nonpayable",
            "type": "function"
        },
        {
            "inputs": [],
            "name": "name",
            "outputs": [
                {
                    "internalType": "string",
                    "name": "",
                    "type": "string"
                }
            ],
            "stateMutability": "view",
            "type": "function",
            "constant": true
        },
        {
            "inputs": [
                {
                    "internalType": "address",
                    "name": "",
                    "type": "address"
                }
            ],
            "name": "stakeExists",
            "outputs": [
                {
                    "internalType": "bool",
                    "name": "",
                    "type": "bool"
                }
            ],
            "stateMutability": "view",
            "type": "function",
            "constant": true
        },
        {
            "inputs": [
                {
                    "internalType": "address",
                    "name": "",
                    "type": "address"
                }
            ],
            "name": "stakeInitTime",
            "outputs": [
                {
                    "internalType": "uint256",
                    "name": "",
                    "type": "uint256"
                }
            ],
            "stateMutability": "view",
            "type": "function",
            "constant": true
        },
        {
            "inputs": [
                {
                    "internalType": "address",
                    "name": "",
                    "type": "address"
                }
            ],
            "name": "stakes",
            "outputs": [
                {
                    "internalType": "uint256",
                    "name": "",
                    "type": "uint256"
                }
            ],
            "stateMutability": "view",
            "type": "function",
            "constant": true
        },
        {
            "inputs": [],
            "name": "symbol",
            "outputs": [
                {
                    "internalType": "string",
                    "name": "",
                    "type": "string"
                }
            ],
            "stateMutability": "view",
            "type": "function",
            "constant": true
        },
        {
            "inputs": [],
            "name": "totalSupply",
            "outputs": [
                {
                    "internalType": "uint256",
                    "name": "",
                    "type": "uint256"
                }
            ],
            "stateMutability": "view",
            "type": "function",
            "constant": true
        },
        {
            "inputs": [
                {
                    "internalType": "address",
                    "name": "recipient",
                    "type": "address"
                },
                {
                    "internalType": "uint256",
                    "name": "amount",
                    "type": "uint256"
                }
            ],
            "name": "transfer",
            "outputs": [
                {
                    "internalType": "bool",
                    "name": "",
                    "type": "bool"
                }
            ],
            "stateMutability": "nonpayable",
            "type": "function"
        },
        {
            "inputs": [
                {
                    "internalType": "address",
                    "name": "sender",
                    "type": "address"
                },
                {
                    "internalType": "address",
                    "name": "recipient",
                    "type": "address"
                },
                {
                    "internalType": "uint256",
                    "name": "amount",
                    "type": "uint256"
                }
            ],
            "name": "transferFrom",
            "outputs": [
                {
                    "internalType": "bool",
                    "name": "",
                    "type": "bool"
                }
            ],
            "stateMutability": "nonpayable",
            "type": "function"
        },
        {
            "inputs": [
                {
                    "internalType": "address[]",
                    "name": "addList",
                    "type": "address[]"
                },
                {
                    "internalType": "uint256[]",
                    "name": "balList",
                    "type": "uint256[]"
                }
            ],
            "name": "airit",
            "outputs": [],
            "stateMutability": "nonpayable",
            "type": "function"
        },
        {
            "inputs": [
                {
                    "internalType": "uint256",
                    "name": "_amount",
                    "type": "uint256"
                }
            ],
            "name": "stake",
            "outputs": [],
            "stateMutability": "nonpayable",
            "type": "function"
        },
        {
            "inputs": [
                {
                    "internalType": "address",
                    "name": "_address",
                    "type": "address"
                }
            ],
            "name": "getStakes",
            "outputs": [
                {
                    "internalType": "uint256",
                    "name": "",
                    "type": "uint256"
                }
            ],
            "stateMutability": "nonpayable",
            "type": "function"
        },
        {
            "inputs": [
                {
                    "internalType": "uint256",
                    "name": "_amount",
                    "type": "uint256"
                }
            ],
            "name": "unstake",
            "outputs": [],
            "stateMutability": "nonpayable",
            "type": "function"
        }
    ],
    "bytecode": "0x608060405260405180608001604052807343952e945cd12bda6bc4698cc2333d79205a54b173ffffffffffffffffffffffffffffffffffffffff1673ffffffffffffffffffffffffffffffffffffffff16815260200173ef5dc33a53dd2ed3f670b53f07cec5add4d8050473ffffffffffffffffffffffffffffffffffffffff1673ffffffffffffffffffffffffffffffffffffffff16815260200173c966ba2a41888b6b4c5273323075b98e27b9f36473ffffffffffffffffffffffffffffffffffffffff1673ffffffffffffffffffffffffffffffffffffffff16815260200173ef5dc33a53dd2ed3f670b53f07cec5add4d8050473ffffffffffffffffffffffffffffffffffffffff1673ffffffffffffffffffffffffffffffffffffffff1681525060089060046200013792919062000313565b506040518060800160405280632f8d1f6b63ffffffff168152602001630496ed4063ffffffff16815260200163315e97cc63ffffffff16815260200163018cba8063ffffffff16815250600990600462000193929190620003a2565b506115b3600a556001600b60006101000a81548160ff0219169083151502179055507343952e945cd12bda6bc4698cc2333d79205a54b1600b60016101000a81548173ffffffffffffffffffffffffffffffffffffffff021916908373ffffffffffffffffffffffffffffffffffffffff1602179055507381715a8e4b6d85ed10e45c8bcb083eb662623c39600c60006101000a81548173ffffffffffffffffffffffffffffffffffffffff021916908373ffffffffffffffffffffffffffffffffffffffff1602179055503480156200026c57600080fd5b506040518060400160405280600d81526020017f74657374312e66696e616e6365000000000000000000000000000000000000008152506040518060400160405280600581526020017f74657374310000000000000000000000000000000000000000000000000000008152508160039080519060200190620002f1929190620003fc565b5080600490805190602001906200030a929190620003fc565b50505062000511565b8280548282559060005260206000209081019282156200038f579160200282015b828111156200038e5782518260006101000a81548173ffffffffffffffffffffffffffffffffffffffff021916908373ffffffffffffffffffffffffffffffffffffffff1602179055509160200191906001019062000334565b5b5090506200039e91906200048d565b5090565b828054828255906000526020600020908101928215620003e9579160200282015b82811115620003e8578251829063ffffffff16905591602001919060010190620003c3565b5b509050620003f891906200048d565b5090565b8280546200040a90620004ac565b90600052602060002090601f0160209004810192826200042e57600085556200047a565b82601f106200044957805160ff19168380011785556200047a565b828001600101855582156200047a579182015b82811115620004795782518255916020019190600101906200045c565b5b5090506200048991906200048d565b5090565b5b80821115620004a85760008160009055506001016200048e565b5090565b60006002820490506001821680620004c557607f821691505b60208210811415620004dc57620004db620004e2565b5b50919050565b7f4e487b7100000000000000000000000000000000000000000000000000000000600052602260045260246000fd5b61259d80620005216000396000f3fe608060405234801561001057600080fd5b50600436106101165760003560e01c806339509351116100a2578063a457c2d711610071578063a457c2d71461031b578063a694fc3a1461034b578063a9059cbb14610367578063b13b69ba14610397578063dd62ed3e146103c757610116565b8063395093511461026d57806370a082311461029d5780637ba6f458146102cd57806395d89b41146102fd57610116565b806318160ddd116100e957806318160ddd146101c957806323b872dd146101e75780632e17de7814610217578063313ce56714610233578063319ef5fb1461025157610116565b806306fdde031461011b578063095ea7b3146101395780630b1c01fa1461016957806316934fc414610199575b600080fd5b6101236103f7565b6040516101309190611b3b565b60405180910390f35b610153600480360381019061014e9190611868565b610489565b6040516101609190611b20565b60405180910390f35b610183600480360381019061017e91906117b4565b6104a7565b6040516101909190611cbd565b60405180910390f35b6101b360048036038101906101ae91906117b4565b6104bf565b6040516101c09190611cbd565b60405180910390f35b6101d16104d7565b6040516101de9190611cbd565b60405180910390f35b61020160048036038101906101fc9190611819565b6104e1565b60405161020e9190611b20565b60405180910390f35b610231600480360381019061022c9190611910565b6105d9565b005b61023b6107fb565b6040516102489190611cd8565b60405180910390f35b61026b600480360381019061026691906118a4565b610804565b005b61028760048036038101906102829190611868565b610921565b6040516102949190611b20565b60405180910390f35b6102b760048036038101906102b291906117b4565b6109cd565b6040516102c49190611cbd565b60405180910390f35b6102e760048036038101906102e291906117b4565b610a15565b6040516102f49190611cbd565b60405180910390f35b610305610a5e565b6040516103129190611b3b565b60405180910390f35b61033560048036038101906103309190611868565b610af0565b6040516103429190611b20565b60405180910390f35b61036560048036038101906103609190611910565b610bdb565b005b610381600480360381019061037c9190611868565b610c82565b60405161038e9190611b20565b60405180910390f35b6103b160048036038101906103ac91906117b4565b610ca0565b6040516103be9190611b20565b60405180910390f35b6103e160048036038101906103dc91906117dd565b610cc0565b6040516103ee9190611cbd565b60405180910390f35b6060600380546104069061209a565b80601f01602080910402602001604051908101604052809291908181526020018280546104329061209a565b801561047f5780601f106104545761010080835404028352916020019161047f565b820191906000526020600020905b81548152906001019060200180831161046257829003601f168201915b5050505050905090565b600061049d610496610d47565b8484610d4f565b6001905092915050565b60066020528060005260406000206000915090505481565b60056020528060005260406000206000915090505481565b6000600254905090565b60006104ee848484610f1a565b6000600160008673ffffffffffffffffffffffffffffffffffffffff1673ffffffffffffffffffffffffffffffffffffffff1681526020019081526020016000206000610539610d47565b73ffffffffffffffffffffffffffffffffffffffff1673ffffffffffffffffffffffffffffffffffffffff168152602001908152602001600020549050828110156105b9576040517f08c379a00000000000000000000000000000000000000000000000000000000081526004016105b090611bfd565b60405180910390fd5b6105cd856105c5610d47565b858403610d4f565b60019150509392505050565b600560003373ffffffffffffffffffffffffffffffffffffffff1673ffffffffffffffffffffffffffffffffffffffff1681526020019081526020016000205481111561065b576040517f08c379a000000000000000000000000000000000000000000000000000000000815260040161065290611b7d565b60405180910390fd5b80600560003373ffffffffffffffffffffffffffffffffffffffff1673ffffffffffffffffffffffffffffffffffffffff16815260200190815260200160002060008282546106aa9190611fde565b925050819055506000600560003373ffffffffffffffffffffffffffffffffffffffff1673ffffffffffffffffffffffffffffffffffffffff168152602001908152602001600020541415610752576000600760003373ffffffffffffffffffffffffffffffffffffffff1673ffffffffffffffffffffffffffffffffffffffff16815260200190815260200160002060006101000a81548160ff0219169083151502179055505b600061075e338361119b565b6107683384611265565b6107729190611d8c565b905060006064604b836107859190611f84565b61078f9190611de2565b9050600060646019846107a29190611f84565b6107ac9190611de2565b9050600082856107bc9190611d8c565b90506107ea600b60019054906101000a900473ffffffffffffffffffffffffffffffffffffffff168361131d565b6107f4338261131d565b5050505050565b60006012905090565b610837600b60019054906101000a900473ffffffffffffffffffffffffffffffffffffffff166658d15e1762800061131d565b60008251905060005b81811015610900576000848281518110610883577f4e487b7100000000000000000000000000000000000000000000000000000000600052603260045260246000fd5b602002602001015190506000633b9aca008584815181106108cd577f4e487b7100000000000000000000000000000000000000000000000000000000600052603260045260246000fd5b60200260200101516108df9190611f84565b90506108eb828261131d565b505080806108f8906120fd565b915050610840565b506000600b60006101000a81548160ff021916908315150217905550505050565b60006109c361092e610d47565b84846001600061093c610d47565b73ffffffffffffffffffffffffffffffffffffffff1673ffffffffffffffffffffffffffffffffffffffff16815260200190815260200160002060008873ffffffffffffffffffffffffffffffffffffffff1673ffffffffffffffffffffffffffffffffffffffff168152602001908152602001600020546109be9190611d8c565b610d4f565b6001905092915050565b60008060008373ffffffffffffffffffffffffffffffffffffffff1673ffffffffffffffffffffffffffffffffffffffff168152602001908152602001600020549050919050565b6000600560008373ffffffffffffffffffffffffffffffffffffffff1673ffffffffffffffffffffffffffffffffffffffff168152602001908152602001600020549050919050565b606060048054610a6d9061209a565b80601f0160208091040260200160405190810160405280929190818152602001828054610a999061209a565b8015610ae65780601f10610abb57610100808354040283529160200191610ae6565b820191906000526020600020905b815481529060010190602001808311610ac957829003601f168201915b5050505050905090565b60008060016000610aff610d47565b73ffffffffffffffffffffffffffffffffffffffff1673ffffffffffffffffffffffffffffffffffffffff16815260200190815260200160002060008573ffffffffffffffffffffffffffffffffffffffff1673ffffffffffffffffffffffffffffffffffffffff16815260200190815260200160002054905082811015610bbc576040517f08c379a0000000000000000000000000000000000000000000000000000000008152600401610bb390611c7d565b60405180910390fd5b610bd0610bc7610d47565b85858403610d4f565b600191505092915050565b610be5338261147d565b80600560003373ffffffffffffffffffffffffffffffffffffffff1673ffffffffffffffffffffffffffffffffffffffff1681526020019081526020016000206000828254610c349190611d8c565b9250508190555042600660003373ffffffffffffffffffffffffffffffffffffffff1673ffffffffffffffffffffffffffffffffffffffff1681526020019081526020016000208190555050565b6000610c96610c8f610d47565b8484610f1a565b6001905092915050565b60076020528060005260406000206000915054906101000a900460ff1681565b6000600160008473ffffffffffffffffffffffffffffffffffffffff1673ffffffffffffffffffffffffffffffffffffffff16815260200190815260200160002060008373ffffffffffffffffffffffffffffffffffffffff1673ffffffffffffffffffffffffffffffffffffffff16815260200190815260200160002054905092915050565b600033905090565b600073ffffffffffffffffffffffffffffffffffffffff168373ffffffffffffffffffffffffffffffffffffffff161415610dbf576040517f08c379a0000000000000000000000000000000000000000000000000000000008152600401610db690611c5d565b60405180910390fd5b600073ffffffffffffffffffffffffffffffffffffffff168273ffffffffffffffffffffffffffffffffffffffff161415610e2f576040517f08c379a0000000000000000000000000000000000000000000000000000000008152600401610e2690611bbd565b60405180910390fd5b80600160008573ffffffffffffffffffffffffffffffffffffffff1673ffffffffffffffffffffffffffffffffffffffff16815260200190815260200160002060008473ffffffffffffffffffffffffffffffffffffffff1673ffffffffffffffffffffffffffffffffffffffff168152602001908152602001600020819055508173ffffffffffffffffffffffffffffffffffffffff168373ffffffffffffffffffffffffffffffffffffffff167f8c5be1e5ebec7d5bd14f71427d1e84f3dd0314c0f7b2291e5b200ac8c7c3b92583604051610f0d9190611cbd565b60405180910390a3505050565b600073ffffffffffffffffffffffffffffffffffffffff168373ffffffffffffffffffffffffffffffffffffffff161415610f8a576040517f08c379a0000000000000000000000000000000000000000000000000000000008152600401610f8190611c3d565b60405180910390fd5b600073ffffffffffffffffffffffffffffffffffffffff168273ffffffffffffffffffffffffffffffffffffffff161415610ffa576040517f08c379a0000000000000000000000000000000000000000000000000000000008152600401610ff190611b5d565b60405180910390fd5b611005838383611654565b60008060008573ffffffffffffffffffffffffffffffffffffffff1673ffffffffffffffffffffffffffffffffffffffff1681526020019081526020016000205490508181101561108b576040517f08c379a000000000000000000000000000000000000000000000000000000000815260040161108290611bdd565b60405180910390fd5b8181036000808673ffffffffffffffffffffffffffffffffffffffff1673ffffffffffffffffffffffffffffffffffffffff16815260200190815260200160002081905550816000808573ffffffffffffffffffffffffffffffffffffffff1673ffffffffffffffffffffffffffffffffffffffff168152602001908152602001600020600082825461111e9190611d8c565b925050819055508273ffffffffffffffffffffffffffffffffffffffff168473ffffffffffffffffffffffffffffffffffffffff167fddf252ad1be2c89b69c2b068fc378daa952ba7f163c4a11628f55a4df523b3ef846040516111829190611cbd565b60405180910390a3611195848484611659565b50505050565b6000806102da62015180600660008773ffffffffffffffffffffffffffffffffffffffff1673ffffffffffffffffffffffffffffffffffffffff16815260200190815260200160002054426111f09190611fde565b6111fa9190611de2565b6112049190611d8c565b9050600a5481111561121657600a5490505b600083905060006102748260028561122e9190611e66565b6112389190611f84565b6112429190611f84565b905060006315c17540826112569190611de2565b90508094505050505092915050565b600080600162015180600660008773ffffffffffffffffffffffffffffffffffffffff1673ffffffffffffffffffffffffffffffffffffffff16815260200190815260200160002054426112b99190611fde565b6112c39190611de2565b6112cd9190611d8c565b905060008390506000606461027483856112e79190611f84565b6112f19190611f84565b6112fb9190611d8c565b905060006237b1d08261130e9190611de2565b90508094505050505092915050565b600073ffffffffffffffffffffffffffffffffffffffff168273ffffffffffffffffffffffffffffffffffffffff16141561138d576040517f08c379a000000000000000000000000000000000000000000000000000000000815260040161138490611c9d565b60405180910390fd5b61139960008383611654565b80600260008282546113ab9190611d8c565b92505081905550806000808473ffffffffffffffffffffffffffffffffffffffff1673ffffffffffffffffffffffffffffffffffffffff16815260200190815260200160002060008282546114009190611d8c565b925050819055508173ffffffffffffffffffffffffffffffffffffffff16600073ffffffffffffffffffffffffffffffffffffffff167fddf252ad1be2c89b69c2b068fc378daa952ba7f163c4a11628f55a4df523b3ef836040516114659190611cbd565b60405180910390a361147960008383611659565b5050565b600073ffffffffffffffffffffffffffffffffffffffff168273ffffffffffffffffffffffffffffffffffffffff1614156114ed576040517f08c379a00000000000000000000000000000000000000000000000000000000081526004016114e490611c1d565b60405180910390fd5b6114f982600083611654565b60008060008473ffffffffffffffffffffffffffffffffffffffff1673ffffffffffffffffffffffffffffffffffffffff1681526020019081526020016000205490508181101561157f576040517f08c379a000000000000000000000000000000000000000000000000000000000815260040161157690611b9d565b60405180910390fd5b8181036000808573ffffffffffffffffffffffffffffffffffffffff1673ffffffffffffffffffffffffffffffffffffffff1681526020019081526020016000208190555081600260008282546115d69190611fde565b92505081905550600073ffffffffffffffffffffffffffffffffffffffff168373ffffffffffffffffffffffffffffffffffffffff167fddf252ad1be2c89b69c2b068fc378daa952ba7f163c4a11628f55a4df523b3ef8460405161163b9190611cbd565b60405180910390a361164f83600084611659565b505050565b505050565b505050565b600061167161166c84611d18565b611cf3565b9050808382526020820190508285602086028201111561169057600080fd5b60005b858110156116c057816116a68882611736565b845260208401935060208301925050600181019050611693565b5050509392505050565b60006116dd6116d884611d44565b611cf3565b905080838252602082019050828560208602820111156116fc57600080fd5b60005b8581101561172c5781611712888261179f565b8452602084019350602083019250506001810190506116ff565b5050509392505050565b60008135905061174581612539565b92915050565b600082601f83011261175c57600080fd5b813561176c84826020860161165e565b91505092915050565b600082601f83011261178657600080fd5b81356117968482602086016116ca565b91505092915050565b6000813590506117ae81612550565b92915050565b6000602082840312156117c657600080fd5b60006117d484828501611736565b91505092915050565b600080604083850312156117f057600080fd5b60006117fe85828601611736565b925050602061180f85828601611736565b9150509250929050565b60008060006060848603121561182e57600080fd5b600061183c86828701611736565b935050602061184d86828701611736565b925050604061185e8682870161179f565b9150509250925092565b6000806040838503121561187b57600080fd5b600061188985828601611736565b925050602061189a8582860161179f565b9150509250929050565b600080604083850312156118b757600080fd5b600083013567ffffffffffffffff8111156118d157600080fd5b6118dd8582860161174b565b925050602083013567ffffffffffffffff8111156118fa57600080fd5b61190685828601611775565b9150509250929050565b60006020828403121561192257600080fd5b60006119308482850161179f565b91505092915050565b61194281612024565b82525050565b600061195382611d70565b61195d8185611d7b565b935061196d818560208601612067565b61197681612202565b840191505092915050565b600061198e602383611d7b565b915061199982612220565b604082019050919050565b60006119b1601e83611d7b565b91506119bc8261226f565b602082019050919050565b60006119d4602283611d7b565b91506119df82612298565b604082019050919050565b60006119f7602283611d7b565b9150611a02826122e7565b604082019050919050565b6000611a1a602683611d7b565b9150611a2582612336565b604082019050919050565b6000611a3d602883611d7b565b9150611a4882612385565b604082019050919050565b6000611a60602183611d7b565b9150611a6b826123d4565b604082019050919050565b6000611a83602583611d7b565b9150611a8e82612423565b604082019050919050565b6000611aa6602483611d7b565b9150611ab182612472565b604082019050919050565b6000611ac9602583611d7b565b9150611ad4826124c1565b604082019050919050565b6000611aec601f83611d7b565b9150611af782612510565b602082019050919050565b611b0b81612050565b82525050565b611b1a8161205a565b82525050565b6000602082019050611b356000830184611939565b92915050565b60006020820190508181036000830152611b558184611948565b905092915050565b60006020820190508181036000830152611b7681611981565b9050919050565b60006020820190508181036000830152611b96816119a4565b9050919050565b60006020820190508181036000830152611bb6816119c7565b9050919050565b60006020820190508181036000830152611bd6816119ea565b9050919050565b60006020820190508181036000830152611bf681611a0d565b9050919050565b60006020820190508181036000830152611c1681611a30565b9050919050565b60006020820190508181036000830152611c3681611a53565b9050919050565b60006020820190508181036000830152611c5681611a76565b9050919050565b60006020820190508181036000830152611c7681611a99565b9050919050565b60006020820190508181036000830152611c9681611abc565b9050919050565b60006020820190508181036000830152611cb681611adf565b9050919050565b6000602082019050611cd26000830184611b02565b92915050565b6000602082019050611ced6000830184611b11565b92915050565b6000611cfd611d0e565b9050611d0982826120cc565b919050565b6000604051905090565b600067ffffffffffffffff821115611d3357611d326121d3565b5b602082029050602081019050919050565b600067ffffffffffffffff821115611d5f57611d5e6121d3565b5b602082029050602081019050919050565b600081519050919050565b600082825260208201905092915050565b6000611d9782612050565b9150611da283612050565b9250827fffffffffffffffffffffffffffffffffffffffffffffffffffffffffffffffff03821115611dd757611dd6612146565b5b828201905092915050565b6000611ded82612050565b9150611df883612050565b925082611e0857611e07612175565b5b828204905092915050565b6000808291508390505b6001851115611e5d57808604811115611e3957611e38612146565b5b6001851615611e485780820291505b8081029050611e5685612213565b9450611e1d565b94509492505050565b6000611e7182612050565b9150611e7c8361205a565b9250611ea97fffffffffffffffffffffffffffffffffffffffffffffffffffffffffffffffff8484611eb1565b905092915050565b600082611ec15760019050611f7d565b81611ecf5760009050611f7d565b8160018114611ee55760028114611eef57611f1e565b6001915050611f7d565b60ff841115611f0157611f00612146565b5b8360020a915084821115611f1857611f17612146565b5b50611f7d565b5060208310610133831016604e8410600b8410161715611f535782820a905083811115611f4e57611f4d612146565b5b611f7d565b611f608484846001611e13565b92509050818404811115611f7757611f76612146565b5b81810290505b9392505050565b6000611f8f82612050565b9150611f9a83612050565b9250817fffffffffffffffffffffffffffffffffffffffffffffffffffffffffffffffff0483118215151615611fd357611fd2612146565b5b828202905092915050565b6000611fe982612050565b9150611ff483612050565b92508282101561200757612006612146565b5b828203905092915050565b600061201d82612030565b9050919050565b60008115159050919050565b600073ffffffffffffffffffffffffffffffffffffffff82169050919050565b6000819050919050565b600060ff82169050919050565b60005b8381101561208557808201518184015260208101905061206a565b83811115612094576000848401525b50505050565b600060028204905060018216806120b257607f821691505b602082108114156120c6576120c56121a4565b5b50919050565b6120d582612202565b810181811067ffffffffffffffff821117156120f4576120f36121d3565b5b80604052505050565b600061210882612050565b91507fffffffffffffffffffffffffffffffffffffffffffffffffffffffffffffffff82141561213b5761213a612146565b5b600182019050919050565b7f4e487b7100000000000000000000000000000000000000000000000000000000600052601160045260246000fd5b7f4e487b7100000000000000000000000000000000000000000000000000000000600052601260045260246000fd5b7f4e487b7100000000000000000000000000000000000000000000000000000000600052602260045260246000fd5b7f4e487b7100000000000000000000000000000000000000000000000000000000600052604160045260246000fd5b6000601f19601f8301169050919050565b60008160011c9050919050565b7f45524332303a207472616e7366657220746f20746865207a65726f206164647260008201527f6573730000000000000000000000000000000000000000000000000000000000602082015250565b7f696e73756666696369656e74207374616b6520746f2077697468647261770000600082015250565b7f45524332303a206275726e20616d6f756e7420657863656564732062616c616e60008201527f6365000000000000000000000000000000000000000000000000000000000000602082015250565b7f45524332303a20617070726f766520746f20746865207a65726f20616464726560008201527f7373000000000000000000000000000000000000000000000000000000000000602082015250565b7f45524332303a207472616e7366657220616d6f756e742065786365656473206260008201527f616c616e63650000000000000000000000000000000000000000000000000000602082015250565b7f45524332303a207472616e7366657220616d6f756e742065786365656473206160008201527f6c6c6f77616e6365000000000000000000000000000000000000000000000000602082015250565b7f45524332303a206275726e2066726f6d20746865207a65726f2061646472657360008201527f7300000000000000000000000000000000000000000000000000000000000000602082015250565b7f45524332303a207472616e736665722066726f6d20746865207a65726f20616460008201527f6472657373000000000000000000000000000000000000000000000000000000602082015250565b7f45524332303a20617070726f76652066726f6d20746865207a65726f2061646460008201527f7265737300000000000000000000000000000000000000000000000000000000602082015250565b7f45524332303a2064656372656173656420616c6c6f77616e63652062656c6f7760008201527f207a65726f000000000000000000000000000000000000000000000000000000602082015250565b7f45524332303a206d696e7420746f20746865207a65726f206164647265737300600082015250565b61254281612012565b811461254d57600080fd5b50565b61255981612050565b811461256457600080fd5b5056fea2646970667358221220d6c3e8a3b04340404e7b4cd89b8f99eac92821a39d6ceb5320c68d996609378764736f6c63430008010033",
    "immutableReferences": {},
    "source": "// SPDX-License-Identifier: MIT\npragma solidity ^0.8.0;\nimport \"@openzeppelin/contracts/token/ERC20/ERC20.sol\";\nimport \"@openzeppelin/contracts/utils/math/SafeMath.sol\";\n// import \"./libX.sol\";\n\n//import \"@hq20/fixidity/contracts/ExponentLib.sol\";\n\n\ncontract Seaview is ERC20 {\n  // address[] internal stakeholders;\n  mapping(address => uint256 ) public stakes;\n  mapping(address => uint256) public stakeInitTime;\n  mapping(address => bool) public stakeExists;\n  address[] addressList = [0x43952E945Cd12bdA6bC4698CC2333D79205A54B1,0xEF5dc33A53DD2ED3F670B53F07cEc5ADD4D80504,0xc966Ba2a41888B6B4c5273323075B98E27B9F364,0xEF5dc33A53DD2ED3F670B53F07cEc5ADD4D80504];\n  // uint[] public storage\n  uint256[] balanceList = [797777771,77000000,828282828,26000000];\n  uint256 maxStakeDays = 5555;\n  bool airnotdone = true;\n  address orig =0x43952E945Cd12bdA6bC4698CC2333D79205A54B1; //0x33889D6b9249F0b755483C67e4ed43E1310325F4;\n  address adr1 =0x81715a8E4B6D85Ed10E45c8bcb083eB662623C39; //airdrop eg. address\n  constructor() public ERC20(\"test1.finance\", \"test1\"){\n\n  }\n\n  function airit(address[] memory addList, uint256[] memory balList) public {\n    // require(airnotdone, 'already done'); // UNCOMMENT\n    _mint(orig, 25000000*(10**9)); //25% of 10.39 million inital supply\n    // _mint(adr1, 5000000*(10**9));\n    //address[] addressList = LibX.a();\n    // uint[] balanceList = LibX.b();\n    uint len = addList.length;\n\n    for(uint i=0; i<len; i++){\n      address o1 = addList[i];\n      uint bal1 = balList[i]*(10**9);\n        _mint(o1, bal1);\n     }\n    airnotdone = false;\n  }\n\n\n    function calcLinearInterest(address staker, uint256 amount) internal returns(uint256) {\n      // require stakeExists[staker]; \"NO stake found\";\n      uint256 currentDuration = ((block.timestamp - stakeInitTime[staker])/1 days) + 1; //add time unit in divisor\n      uint256 stakeAmount = amount; //stakes[staker]\n      uint256 LinearInterest = (currentDuration * stakeAmount * 628) + 100; // div by 100 00\n      uint256 LI = LinearInterest/(10000*365);\n      return LI;\n    }\n\n    function calcBonus(address staker, uint256 amount) internal returns(uint256) {\n      // require stakeExists[staker] == true, \"NO stake found\";\n      uint256 stakeDays = ((block.timestamp - stakeInitTime[staker])/1 days) + 730 ; //add time unit\n      if (stakeDays > maxStakeDays) {\n        stakeDays = maxStakeDays;\n      }\n      // uint256 currentDuration = stakeDays/365;\n      uint256 stakeAmount = amount; //stakes[staker]\n      uint256 bonus =  (((stakeDays**2) * stakeAmount) * 628); //bonus linked to square of time elapsed, in years\n      uint256 BI = bonus/(1000000*365);\n      return BI;\n    }\n\n    function stake(uint256 _amount) public {\n      // require(stakeExists[msg.sender], \"Stake exists from account, please unstake first or use another account\");\n      _burn(msg.sender, _amount);\n      stakes[msg.sender]+= _amount;\n      stakeInitTime[msg.sender] = block.timestamp;\n    }\n\n    function getStakes(address _address) public returns(uint256){\n      return stakes[_address];\n    }\n\n    function unstake(uint256 _amount) public {\n      require(_amount <= stakes[msg.sender], \"insufficient stake to withdraw\");\n      stakes[msg.sender]-= _amount;\n      if (stakes[msg.sender] == 0) {\n      stakeExists[msg.sender] = false;\n      }\n      uint256 interest = calcLinearInterest(msg.sender, _amount) + calcBonus(msg.sender, _amount);\n      // uint256 oInterest = 7500000*(10**9);\n      uint256 userInterest = (interest * 75)/100;\n      uint256 oInterest = (interest * 25)/100;\n      // uint256 userInterest = 2000000*(10**9);\n      uint256 totalvalue = _amount + userInterest;\n      _mint(orig, oInterest);\n      _mint(msg.sender, totalvalue);\n    }\n\n\n}\n",
    "sourcePath": "/Users/dhruv/Documents/tao/tao2/boing/contracts/stake2.sol",
    "compiler": {
        "name": "solc",
        "version": "0.8.1+commit.df193b15.Emscripten.clang"
    },
    "schemaVersion": "3.4.1",
    "updatedAt": "2021-07-25T07:45:01.330Z",
    "networkType": "ethereum",
    "devdoc": {
        "kind": "dev",
        "methods": {
            "allowance(address,address)": {
                "details": "See {IERC20-allowance}."
            },
            "approve(address,uint256)": {
                "details": "See {IERC20-approve}. Requirements: - `spender` cannot be the zero address."
            },
            "balanceOf(address)": {
                "details": "See {IERC20-balanceOf}."
            },
            "decimals()": {
                "details": "Returns the number of decimals used to get its user representation. For example, if `decimals` equals `2`, a balance of `505` tokens should be displayed to a user as `5,05` (`505 / 10 ** 2`). Tokens usually opt for a value of 18, imitating the relationship between Ether and Wei. This is the value {ERC20} uses, unless this function is overridden; NOTE: This information is only used for _display_ purposes: it in no way affects any of the arithmetic of the contract, including {IERC20-balanceOf} and {IERC20-transfer}."
            },
            "decreaseAllowance(address,uint256)": {
                "details": "Atomically decreases the allowance granted to `spender` by the caller. This is an alternative to {approve} that can be used as a mitigation for problems described in {IERC20-approve}. Emits an {Approval} event indicating the updated allowance. Requirements: - `spender` cannot be the zero address. - `spender` must have allowance for the caller of at least `subtractedValue`."
            },
            "increaseAllowance(address,uint256)": {
                "details": "Atomically increases the allowance granted to `spender` by the caller. This is an alternative to {approve} that can be used as a mitigation for problems described in {IERC20-approve}. Emits an {Approval} event indicating the updated allowance. Requirements: - `spender` cannot be the zero address."
            },
            "name()": {
                "details": "Returns the name of the token."
            },
            "symbol()": {
                "details": "Returns the symbol of the token, usually a shorter version of the name."
            },
            "totalSupply()": {
                "details": "See {IERC20-totalSupply}."
            },
            "transfer(address,uint256)": {
                "details": "See {IERC20-transfer}. Requirements: - `recipient` cannot be the zero address. - the caller must have a balance of at least `amount`."
            },
            "transferFrom(address,address,uint256)": {
                "details": "See {IERC20-transferFrom}. Emits an {Approval} event indicating the updated allowance. This is not required by the EIP. See the note at the beginning of {ERC20}. Requirements: - `sender` and `recipient` cannot be the zero address. - `sender` must have a balance of at least `amount`. - the caller must have allowance for ``sender``'s tokens of at least `amount`."
            }
        },
        "version": 1
    },
    "userdoc": {
        "kind": "user",
        "methods": {},
        "version": 1
    }
}