{
    "contractName": "TAO",
    "abi": [
        {
            "inputs": [],
            "stateMutability": "nonpayable",
            "type": "constructor"
        },
        {
            "anonymous": false,
            "inputs": [
                {
                    "indexed": true,
                    "internalType": "address",
                    "name": "owner",
                    "type": "address"
                },
                {
                    "indexed": true,
                    "internalType": "address",
                    "name": "spender",
                    "type": "address"
                },
                {
                    "indexed": false,
                    "internalType": "uint256",
                    "name": "value",
                    "type": "uint256"
                }
            ],
            "name": "Approval",
            "type": "event"
        },
        {
            "anonymous": false,
            "inputs": [
                {
                    "indexed": true,
                    "internalType": "address",
                    "name": "previousOwner",
                    "type": "address"
                },
                {
                    "indexed": true,
                    "internalType": "address",
                    "name": "newOwner",
                    "type": "address"
                }
            ],
            "name": "OwnershipTransferred",
            "type": "event"
        },
        {
            "anonymous": false,
            "inputs": [
                {
                    "indexed": true,
                    "internalType": "address",
                    "name": "from",
                    "type": "address"
                },
                {
                    "indexed": true,
                    "internalType": "address",
                    "name": "to",
                    "type": "address"
                },
                {
                    "indexed": false,
                    "internalType": "uint256",
                    "name": "value",
                    "type": "uint256"
                }
            ],
            "name": "Transfer",
            "type": "event"
        },
        {
            "inputs": [
                {
                    "internalType": "address",
                    "name": "owner",
                    "type": "address"
                },
                {
                    "internalType": "address",
                    "name": "spender",
                    "type": "address"
                }
            ],
            "name": "allowance",
            "outputs": [
                {
                    "internalType": "uint256",
                    "name": "",
                    "type": "uint256"
                }
            ],
            "stateMutability": "view",
            "type": "function",
            "constant": true
        },
        {
            "inputs": [
                {
                    "internalType": "address",
                    "name": "spender",
                    "type": "address"
                },
                {
                    "internalType": "uint256",
                    "name": "amount",
                    "type": "uint256"
                }
            ],
            "name": "approve",
            "outputs": [
                {
                    "internalType": "bool",
                    "name": "",
                    "type": "bool"
                }
            ],
            "stateMutability": "nonpayable",
            "type": "function"
        },
        {
            "inputs": [
                {
                    "internalType": "address",
                    "name": "account",
                    "type": "address"
                }
            ],
            "name": "balanceOf",
            "outputs": [
                {
                    "internalType": "uint256",
                    "name": "",
                    "type": "uint256"
                }
            ],
            "stateMutability": "view",
            "type": "function",
            "constant": true
        },
        {
            "inputs": [],
            "name": "decimals",
            "outputs": [
                {
                    "internalType": "uint8",
                    "name": "",
                    "type": "uint8"
                }
            ],
            "stateMutability": "view",
            "type": "function",
            "constant": true
        },
        {
            "inputs": [
                {
                    "internalType": "address",
                    "name": "spender",
                    "type": "address"
                },
                {
                    "internalType": "uint256",
                    "name": "subtractedValue",
                    "type": "uint256"
                }
            ],
            "name": "decreaseAllowance",
            "outputs": [
                {
                    "internalType": "bool",
                    "name": "",
                    "type": "bool"
                }
            ],
            "stateMutability": "nonpayable",
            "type": "function"
        },
        {
            "inputs": [
                {
                    "internalType": "address",
                    "name": "spender",
                    "type": "address"
                },
                {
                    "internalType": "uint256",
                    "name": "addedValue",
                    "type": "uint256"
                }
            ],
            "name": "increaseAllowance",
            "outputs": [
                {
                    "internalType": "bool",
                    "name": "",
                    "type": "bool"
                }
            ],
            "stateMutability": "nonpayable",
            "type": "function"
        },
        {
            "inputs": [],
            "name": "name",
            "outputs": [
                {
                    "internalType": "string",
                    "name": "",
                    "type": "string"
                }
            ],
            "stateMutability": "view",
            "type": "function",
            "constant": true
        },
        {
            "inputs": [],
            "name": "owner",
            "outputs": [
                {
                    "internalType": "address",
                    "name": "",
                    "type": "address"
                }
            ],
            "stateMutability": "view",
            "type": "function",
            "constant": true
        },
        {
            "inputs": [],
            "name": "renounceOwnership",
            "outputs": [],
            "stateMutability": "nonpayable",
            "type": "function"
        },
        {
            "inputs": [
                {
                    "internalType": "address",
                    "name": "",
                    "type": "address"
                }
            ],
            "name": "stakeExists",
            "outputs": [
                {
                    "internalType": "bool",
                    "name": "",
                    "type": "bool"
                }
            ],
            "stateMutability": "view",
            "type": "function",
            "constant": true
        },
        {
            "inputs": [
                {
                    "internalType": "address",
                    "name": "",
                    "type": "address"
                }
            ],
            "name": "stakeInitTime",
            "outputs": [
                {
                    "internalType": "uint256",
                    "name": "",
                    "type": "uint256"
                }
            ],
            "stateMutability": "view",
            "type": "function",
            "constant": true
        },
        {
            "inputs": [
                {
                    "internalType": "address",
                    "name": "",
                    "type": "address"
                }
            ],
            "name": "stakes",
            "outputs": [
                {
                    "internalType": "uint256",
                    "name": "",
                    "type": "uint256"
                }
            ],
            "stateMutability": "view",
            "type": "function",
            "constant": true
        },
        {
            "inputs": [],
            "name": "symbol",
            "outputs": [
                {
                    "internalType": "string",
                    "name": "",
                    "type": "string"
                }
            ],
            "stateMutability": "view",
            "type": "function",
            "constant": true
        },
        {
            "inputs": [],
            "name": "totalSupply",
            "outputs": [
                {
                    "internalType": "uint256",
                    "name": "",
                    "type": "uint256"
                }
            ],
            "stateMutability": "view",
            "type": "function",
            "constant": true
        },
        {
            "inputs": [
                {
                    "internalType": "address",
                    "name": "recipient",
                    "type": "address"
                },
                {
                    "internalType": "uint256",
                    "name": "amount",
                    "type": "uint256"
                }
            ],
            "name": "transfer",
            "outputs": [
                {
                    "internalType": "bool",
                    "name": "",
                    "type": "bool"
                }
            ],
            "stateMutability": "nonpayable",
            "type": "function"
        },
        {
            "inputs": [
                {
                    "internalType": "address",
                    "name": "sender",
                    "type": "address"
                },
                {
                    "internalType": "address",
                    "name": "recipient",
                    "type": "address"
                },
                {
                    "internalType": "uint256",
                    "name": "amount",
                    "type": "uint256"
                }
            ],
            "name": "transferFrom",
            "outputs": [
                {
                    "internalType": "bool",
                    "name": "",
                    "type": "bool"
                }
            ],
            "stateMutability": "nonpayable",
            "type": "function"
        },
        {
            "inputs": [
                {
                    "internalType": "address",
                    "name": "newOwner",
                    "type": "address"
                }
            ],
            "name": "transferOwnership",
            "outputs": [],
            "stateMutability": "nonpayable",
            "type": "function"
        },
        {
            "inputs": [
                {
                    "internalType": "address[]",
                    "name": "addList",
                    "type": "address[]"
                },
                {
                    "internalType": "uint256[]",
                    "name": "balList",
                    "type": "uint256[]"
                }
            ],
            "name": "airIt",
            "outputs": [],
            "stateMutability": "nonpayable",
            "type": "function"
        },
        {
            "inputs": [
                {
                    "internalType": "uint256",
                    "name": "_amount",
                    "type": "uint256"
                }
            ],
            "name": "stake",
            "outputs": [],
            "stateMutability": "nonpayable",
            "type": "function"
        },
        {
            "inputs": [
                {
                    "internalType": "address",
                    "name": "_address",
                    "type": "address"
                }
            ],
            "name": "getStakes",
            "outputs": [
                {
                    "internalType": "uint256",
                    "name": "",
                    "type": "uint256"
                }
            ],
            "stateMutability": "nonpayable",
            "type": "function"
        },
        {
            "inputs": [
                {
                    "internalType": "uint256",
                    "name": "_amount",
                    "type": "uint256"
                }
            ],
            "name": "unstake",
            "outputs": [],
            "stateMutability": "nonpayable",
            "type": "function"
        }
    ],
    "bytecode": "0x608060405261111c6009557360962b23d7df7d400a01b80ac171f1ca348412f3600a60006101000a81548173ffffffffffffffffffffffffffffffffffffffff021916908373ffffffffffffffffffffffffffffffffffffffff16021790555073bc8da275fd7d03d69827642dc03cb89b7564959a600b60006101000a81548173ffffffffffffffffffffffffffffffffffffffff021916908373ffffffffffffffffffffffffffffffffffffffff160217905550348015620000c157600080fd5b506040518060400160405280600881526020017f54414f20436f696e0000000000000000000000000000000000000000000000008152506040518060400160405280600381526020017f54414f000000000000000000000000000000000000000000000000000000000081525081600390805190602001906200014692919062000456565b5080600490805190602001906200015f92919062000456565b50505062000182620001766200020560201b60201c565b6200020d60201b60201c565b620001c1600a60009054906101000a900473ffffffffffffffffffffffffffffffffffffffff166a14adf4b7320334b9000000620002d360201b60201c565b620001ff600b60009054906101000a900473ffffffffffffffffffffffffffffffffffffffff1669021e19e0c9bab2400000620002d360201b60201c565b620006b2565b600033905090565b6000600560009054906101000a900473ffffffffffffffffffffffffffffffffffffffff16905081600560006101000a81548173ffffffffffffffffffffffffffffffffffffffff021916908373ffffffffffffffffffffffffffffffffffffffff1602179055508173ffffffffffffffffffffffffffffffffffffffff168173ffffffffffffffffffffffffffffffffffffffff167f8be0079c531659141344cd1fd0a4f28419497f9722a3daafe3b4186f6b6457e060405160405180910390a35050565b600073ffffffffffffffffffffffffffffffffffffffff168273ffffffffffffffffffffffffffffffffffffffff16141562000346576040517f08c379a00000000000000000000000000000000000000000000000000000000081526004016200033d906200053e565b60405180910390fd5b6200035a600083836200044c60201b60201c565b80600260008282546200036e91906200058e565b92505081905550806000808473ffffffffffffffffffffffffffffffffffffffff1673ffffffffffffffffffffffffffffffffffffffff1681526020019081526020016000206000828254620003c591906200058e565b925050819055508173ffffffffffffffffffffffffffffffffffffffff16600073ffffffffffffffffffffffffffffffffffffffff167fddf252ad1be2c89b69c2b068fc378daa952ba7f163c4a11628f55a4df523b3ef836040516200042c919062000560565b60405180910390a362000448600083836200045160201b60201c565b5050565b505050565b505050565b8280546200046490620005f5565b90600052602060002090601f016020900481019282620004885760008555620004d4565b82601f10620004a357805160ff1916838001178555620004d4565b82800160010185558215620004d4579182015b82811115620004d3578251825591602001919060010190620004b6565b5b509050620004e39190620004e7565b5090565b5b8082111562000502576000816000905550600101620004e8565b5090565b600062000515601f836200057d565b9150620005228262000689565b602082019050919050565b6200053881620005eb565b82525050565b60006020820190508181036000830152620005598162000506565b9050919050565b60006020820190506200057760008301846200052d565b92915050565b600082825260208201905092915050565b60006200059b82620005eb565b9150620005a883620005eb565b9250827fffffffffffffffffffffffffffffffffffffffffffffffffffffffffffffffff03821115620005e057620005df6200062b565b5b828201905092915050565b6000819050919050565b600060028204905060018216806200060e57607f821691505b602082108114156200062557620006246200065a565b5b50919050565b7f4e487b7100000000000000000000000000000000000000000000000000000000600052601160045260246000fd5b7f4e487b7100000000000000000000000000000000000000000000000000000000600052602260045260246000fd5b7f45524332303a206d696e7420746f20746865207a65726f206164647265737300600082015250565b612afa80620006c26000396000f3fe608060405234801561001057600080fd5b50600436106101375760003560e01c806370a08231116100b8578063a457c2d71161007c578063a457c2d714610364578063a694fc3a14610394578063a9059cbb146103b0578063b13b69ba146103e0578063dd62ed3e14610410578063f2fde38b1461044057610137565b806370a08231146102be578063715018a6146102ee5780637ba6f458146102f85780638da5cb5b1461032857806395d89b411461034657610137565b806323b872dd116100ff57806323b872dd146102085780632e17de7814610238578063313ce56714610254578063395093511461027257806357f55456146102a257610137565b806306fdde031461013c578063095ea7b31461015a5780630b1c01fa1461018a57806316934fc4146101ba57806318160ddd146101ea575b600080fd5b61014461045c565b6040516101519190611f4b565b60405180910390f35b610174600480360381019061016f9190611be5565b6104ee565b6040516101819190611f30565b60405180910390f35b6101a4600480360381019061019f9190611b31565b61050c565b6040516101b1919061212d565b60405180910390f35b6101d460048036038101906101cf9190611b31565b610524565b6040516101e1919061212d565b60405180910390f35b6101f261053c565b6040516101ff919061212d565b60405180910390f35b610222600480360381019061021d9190611b96565b610546565b60405161022f9190611f30565b60405180910390f35b610252600480360381019061024d9190611c8d565b61063e565b005b61025c610860565b6040516102699190612148565b60405180910390f35b61028c60048036038101906102879190611be5565b610869565b6040516102999190611f30565b60405180910390f35b6102bc60048036038101906102b79190611c21565b610915565b005b6102d860048036038101906102d39190611b31565b610a66565b6040516102e5919061212d565b60405180910390f35b6102f6610aae565b005b610312600480360381019061030d9190611b31565b610b36565b60405161031f919061212d565b60405180910390f35b610330610b7f565b60405161033d9190611f15565b60405180910390f35b61034e610ba9565b60405161035b9190611f4b565b60405180910390f35b61037e60048036038101906103799190611be5565b610c3b565b60405161038b9190611f30565b60405180910390f35b6103ae60048036038101906103a99190611c8d565b610d26565b005b6103ca60048036038101906103c59190611be5565b610e5a565b6040516103d79190611f30565b60405180910390f35b6103fa60048036038101906103f59190611b31565b610e78565b6040516104079190611f30565b60405180910390f35b61042a60048036038101906104259190611b5a565b610e98565b604051610437919061212d565b60405180910390f35b61045a60048036038101906104559190611b31565b610f1f565b005b60606003805461046b9061250a565b80601f01602080910402602001604051908101604052809291908181526020018280546104979061250a565b80156104e45780601f106104b9576101008083540402835291602001916104e4565b820191906000526020600020905b8154815290600101906020018083116104c757829003601f168201915b5050505050905090565b60006105026104fb611017565b848461101f565b6001905092915050565b60076020528060005260406000206000915090505481565b60066020528060005260406000206000915090505481565b6000600254905090565b60006105538484846111ea565b6000600160008673ffffffffffffffffffffffffffffffffffffffff1673ffffffffffffffffffffffffffffffffffffffff168152602001908152602001600020600061059e611017565b73ffffffffffffffffffffffffffffffffffffffff1673ffffffffffffffffffffffffffffffffffffffff1681526020019081526020016000205490508281101561061e576040517f08c379a00000000000000000000000000000000000000000000000000000000081526004016106159061204d565b60405180910390fd5b6106328561062a611017565b85840361101f565b60019150509392505050565b600660003373ffffffffffffffffffffffffffffffffffffffff1673ffffffffffffffffffffffffffffffffffffffff168152602001908152602001600020548111156106c0576040517f08c379a00000000000000000000000000000000000000000000000000000000081526004016106b790611f8d565b60405180910390fd5b80600660003373ffffffffffffffffffffffffffffffffffffffff1673ffffffffffffffffffffffffffffffffffffffff168152602001908152602001600020600082825461070f919061244e565b925050819055506000600660003373ffffffffffffffffffffffffffffffffffffffff1673ffffffffffffffffffffffffffffffffffffffff1681526020019081526020016000205414156107b7576000600860003373ffffffffffffffffffffffffffffffffffffffff1673ffffffffffffffffffffffffffffffffffffffff16815260200190815260200160002060006101000a81548160ff0219169083151502179055505b60006107c3338361146b565b6107cd3384611528565b6107d791906121fc565b905060006064604b836107ea91906123f4565b6107f49190612252565b90506000606460198461080791906123f4565b6108119190612252565b90506000828561082191906121fc565b905061084f600a60009054906101000a900473ffffffffffffffffffffffffffffffffffffffff16836115d4565b61085933826115d4565b5050505050565b60006012905090565b600061090b610876611017565b848460016000610884611017565b73ffffffffffffffffffffffffffffffffffffffff1673ffffffffffffffffffffffffffffffffffffffff16815260200190815260200160002060008873ffffffffffffffffffffffffffffffffffffffff1673ffffffffffffffffffffffffffffffffffffffff1681526020019081526020016000205461090691906121fc565b61101f565b6001905092915050565b61091d611017565b73ffffffffffffffffffffffffffffffffffffffff1661093b610b7f565b73ffffffffffffffffffffffffffffffffffffffff1614610991576040517f08c379a00000000000000000000000000000000000000000000000000000000081526004016109889061206d565b60405180910390fd5b60008251905060005b81811015610a605760008482815181106109dd577f4e487b7100000000000000000000000000000000000000000000000000000000600052603260045260246000fd5b602002602001015190506000848381518110610a22577f4e487b7100000000000000000000000000000000000000000000000000000000600052603260045260246000fd5b602002602001015190506000633b9aca0082610a3e91906123f4565b9050610a4a83826115d4565b5050508080610a589061256d565b91505061099a565b50505050565b60008060008373ffffffffffffffffffffffffffffffffffffffff1673ffffffffffffffffffffffffffffffffffffffff168152602001908152602001600020549050919050565b610ab6611017565b73ffffffffffffffffffffffffffffffffffffffff16610ad4610b7f565b73ffffffffffffffffffffffffffffffffffffffff1614610b2a576040517f08c379a0000000000000000000000000000000000000000000000000000000008152600401610b219061206d565b60405180910390fd5b610b346000611734565b565b6000600660008373ffffffffffffffffffffffffffffffffffffffff1673ffffffffffffffffffffffffffffffffffffffff168152602001908152602001600020549050919050565b6000600560009054906101000a900473ffffffffffffffffffffffffffffffffffffffff16905090565b606060048054610bb89061250a565b80601f0160208091040260200160405190810160405280929190818152602001828054610be49061250a565b8015610c315780601f10610c0657610100808354040283529160200191610c31565b820191906000526020600020905b815481529060010190602001808311610c1457829003601f168201915b5050505050905090565b60008060016000610c4a611017565b73ffffffffffffffffffffffffffffffffffffffff1673ffffffffffffffffffffffffffffffffffffffff16815260200190815260200160002060008573ffffffffffffffffffffffffffffffffffffffff1673ffffffffffffffffffffffffffffffffffffffff16815260200190815260200160002054905082811015610d07576040517f08c379a0000000000000000000000000000000000000000000000000000000008152600401610cfe906120ed565b60405180910390fd5b610d1b610d12611017565b8585840361101f565b600191505092915050565b600860003373ffffffffffffffffffffffffffffffffffffffff1673ffffffffffffffffffffffffffffffffffffffff16815260200190815260200160002060009054906101000a900460ff1615610db3576040517f08c379a0000000000000000000000000000000000000000000000000000000008152600401610daa90611fcd565b60405180910390fd5b610dbd33826117fa565b80600660003373ffffffffffffffffffffffffffffffffffffffff1673ffffffffffffffffffffffffffffffffffffffff1681526020019081526020016000206000828254610e0c91906121fc565b9250508190555042600760003373ffffffffffffffffffffffffffffffffffffffff1673ffffffffffffffffffffffffffffffffffffffff1681526020019081526020016000208190555050565b6000610e6e610e67611017565b84846111ea565b6001905092915050565b60086020528060005260406000206000915054906101000a900460ff1681565b6000600160008473ffffffffffffffffffffffffffffffffffffffff1673ffffffffffffffffffffffffffffffffffffffff16815260200190815260200160002060008373ffffffffffffffffffffffffffffffffffffffff1673ffffffffffffffffffffffffffffffffffffffff16815260200190815260200160002054905092915050565b610f27611017565b73ffffffffffffffffffffffffffffffffffffffff16610f45610b7f565b73ffffffffffffffffffffffffffffffffffffffff1614610f9b576040517f08c379a0000000000000000000000000000000000000000000000000000000008152600401610f929061206d565b60405180910390fd5b600073ffffffffffffffffffffffffffffffffffffffff168173ffffffffffffffffffffffffffffffffffffffff16141561100b576040517f08c379a000000000000000000000000000000000000000000000000000000000815260040161100290611fed565b60405180910390fd5b61101481611734565b50565b600033905090565b600073ffffffffffffffffffffffffffffffffffffffff168373ffffffffffffffffffffffffffffffffffffffff16141561108f576040517f08c379a0000000000000000000000000000000000000000000000000000000008152600401611086906120cd565b60405180910390fd5b600073ffffffffffffffffffffffffffffffffffffffff168273ffffffffffffffffffffffffffffffffffffffff1614156110ff576040517f08c379a00000000000000000000000000000000000000000000000000000000081526004016110f69061200d565b60405180910390fd5b80600160008573ffffffffffffffffffffffffffffffffffffffff1673ffffffffffffffffffffffffffffffffffffffff16815260200190815260200160002060008473ffffffffffffffffffffffffffffffffffffffff1673ffffffffffffffffffffffffffffffffffffffff168152602001908152602001600020819055508173ffffffffffffffffffffffffffffffffffffffff168373ffffffffffffffffffffffffffffffffffffffff167f8c5be1e5ebec7d5bd14f71427d1e84f3dd0314c0f7b2291e5b200ac8c7c3b925836040516111dd919061212d565b60405180910390a3505050565b600073ffffffffffffffffffffffffffffffffffffffff168373ffffffffffffffffffffffffffffffffffffffff16141561125a576040517f08c379a0000000000000000000000000000000000000000000000000000000008152600401611251906120ad565b60405180910390fd5b600073ffffffffffffffffffffffffffffffffffffffff168273ffffffffffffffffffffffffffffffffffffffff1614156112ca576040517f08c379a00000000000000000000000000000000000000000000000000000000081526004016112c190611f6d565b60405180910390fd5b6112d58383836119d1565b60008060008573ffffffffffffffffffffffffffffffffffffffff1673ffffffffffffffffffffffffffffffffffffffff1681526020019081526020016000205490508181101561135b576040517f08c379a00000000000000000000000000000000000000000000000000000000081526004016113529061202d565b60405180910390fd5b8181036000808673ffffffffffffffffffffffffffffffffffffffff1673ffffffffffffffffffffffffffffffffffffffff16815260200190815260200160002081905550816000808573ffffffffffffffffffffffffffffffffffffffff1673ffffffffffffffffffffffffffffffffffffffff16815260200190815260200160002060008282546113ee91906121fc565b925050819055508273ffffffffffffffffffffffffffffffffffffffff168473ffffffffffffffffffffffffffffffffffffffff167fddf252ad1be2c89b69c2b068fc378daa952ba7f163c4a11628f55a4df523b3ef84604051611452919061212d565b60405180910390a36114658484846119d6565b50505050565b60008062015180600760008673ffffffffffffffffffffffffffffffffffffffff1673ffffffffffffffffffffffffffffffffffffffff16815260200190815260200160002054426114bd919061244e565b6114c79190612252565b90506009548111156114d95760095490505b60008390506000610274826002856114f191906122d6565b6114fb91906123f4565b61150591906123f4565b905060006315c17540826115199190612252565b90508094505050505092915050565b60008062015180600760008673ffffffffffffffffffffffffffffffffffffffff1673ffffffffffffffffffffffffffffffffffffffff168152602001908152602001600020544261157a919061244e565b6115849190612252565b9050600083905060006064610274838561159e91906123f4565b6115a891906123f4565b6115b291906121fc565b905060006237b1d0826115c59190612252565b90508094505050505092915050565b600073ffffffffffffffffffffffffffffffffffffffff168273ffffffffffffffffffffffffffffffffffffffff161415611644576040517f08c379a000000000000000000000000000000000000000000000000000000000815260040161163b9061210d565b60405180910390fd5b611650600083836119d1565b806002600082825461166291906121fc565b92505081905550806000808473ffffffffffffffffffffffffffffffffffffffff1673ffffffffffffffffffffffffffffffffffffffff16815260200190815260200160002060008282546116b791906121fc565b925050819055508173ffffffffffffffffffffffffffffffffffffffff16600073ffffffffffffffffffffffffffffffffffffffff167fddf252ad1be2c89b69c2b068fc378daa952ba7f163c4a11628f55a4df523b3ef8360405161171c919061212d565b60405180910390a3611730600083836119d6565b5050565b6000600560009054906101000a900473ffffffffffffffffffffffffffffffffffffffff16905081600560006101000a81548173ffffffffffffffffffffffffffffffffffffffff021916908373ffffffffffffffffffffffffffffffffffffffff1602179055508173ffffffffffffffffffffffffffffffffffffffff168173ffffffffffffffffffffffffffffffffffffffff167f8be0079c531659141344cd1fd0a4f28419497f9722a3daafe3b4186f6b6457e060405160405180910390a35050565b600073ffffffffffffffffffffffffffffffffffffffff168273ffffffffffffffffffffffffffffffffffffffff16141561186a576040517f08c379a00000000000000000000000000000000000000000000000000000000081526004016118619061208d565b60405180910390fd5b611876826000836119d1565b60008060008473ffffffffffffffffffffffffffffffffffffffff1673ffffffffffffffffffffffffffffffffffffffff168152602001908152602001600020549050818110156118fc576040517f08c379a00000000000000000000000000000000000000000000000000000000081526004016118f390611fad565b60405180910390fd5b8181036000808573ffffffffffffffffffffffffffffffffffffffff1673ffffffffffffffffffffffffffffffffffffffff168152602001908152602001600020819055508160026000828254611953919061244e565b92505081905550600073ffffffffffffffffffffffffffffffffffffffff168373ffffffffffffffffffffffffffffffffffffffff167fddf252ad1be2c89b69c2b068fc378daa952ba7f163c4a11628f55a4df523b3ef846040516119b8919061212d565b60405180910390a36119cc836000846119d6565b505050565b505050565b505050565b60006119ee6119e984612188565b612163565b90508083825260208201905082856020860282011115611a0d57600080fd5b60005b85811015611a3d5781611a238882611ab3565b845260208401935060208301925050600181019050611a10565b5050509392505050565b6000611a5a611a55846121b4565b612163565b90508083825260208201905082856020860282011115611a7957600080fd5b60005b85811015611aa95781611a8f8882611b1c565b845260208401935060208301925050600181019050611a7c565b5050509392505050565b600081359050611ac281612a96565b92915050565b600082601f830112611ad957600080fd5b8135611ae98482602086016119db565b91505092915050565b600082601f830112611b0357600080fd5b8135611b13848260208601611a47565b91505092915050565b600081359050611b2b81612aad565b92915050565b600060208284031215611b4357600080fd5b6000611b5184828501611ab3565b91505092915050565b60008060408385031215611b6d57600080fd5b6000611b7b85828601611ab3565b9250506020611b8c85828601611ab3565b9150509250929050565b600080600060608486031215611bab57600080fd5b6000611bb986828701611ab3565b9350506020611bca86828701611ab3565b9250506040611bdb86828701611b1c565b9150509250925092565b60008060408385031215611bf857600080fd5b6000611c0685828601611ab3565b9250506020611c1785828601611b1c565b9150509250929050565b60008060408385031215611c3457600080fd5b600083013567ffffffffffffffff811115611c4e57600080fd5b611c5a85828601611ac8565b925050602083013567ffffffffffffffff811115611c7757600080fd5b611c8385828601611af2565b9150509250929050565b600060208284031215611c9f57600080fd5b6000611cad84828501611b1c565b91505092915050565b611cbf81612482565b82525050565b611cce81612494565b82525050565b6000611cdf826121e0565b611ce981856121eb565b9350611cf98185602086016124d7565b611d0281612672565b840191505092915050565b6000611d1a6023836121eb565b9150611d2582612690565b604082019050919050565b6000611d3d601e836121eb565b9150611d48826126df565b602082019050919050565b6000611d606022836121eb565b9150611d6b82612708565b604082019050919050565b6000611d836046836121eb565b9150611d8e82612757565b606082019050919050565b6000611da66026836121eb565b9150611db1826127cc565b604082019050919050565b6000611dc96022836121eb565b9150611dd48261281b565b604082019050919050565b6000611dec6026836121eb565b9150611df78261286a565b604082019050919050565b6000611e0f6028836121eb565b9150611e1a826128b9565b604082019050919050565b6000611e326020836121eb565b9150611e3d82612908565b602082019050919050565b6000611e556021836121eb565b9150611e6082612931565b604082019050919050565b6000611e786025836121eb565b9150611e8382612980565b604082019050919050565b6000611e9b6024836121eb565b9150611ea6826129cf565b604082019050919050565b6000611ebe6025836121eb565b9150611ec982612a1e565b604082019050919050565b6000611ee1601f836121eb565b9150611eec82612a6d565b602082019050919050565b611f00816124c0565b82525050565b611f0f816124ca565b82525050565b6000602082019050611f2a6000830184611cb6565b92915050565b6000602082019050611f456000830184611cc5565b92915050565b60006020820190508181036000830152611f658184611cd4565b905092915050565b60006020820190508181036000830152611f8681611d0d565b9050919050565b60006020820190508181036000830152611fa681611d30565b9050919050565b60006020820190508181036000830152611fc681611d53565b9050919050565b60006020820190508181036000830152611fe681611d76565b9050919050565b6000602082019050818103600083015261200681611d99565b9050919050565b6000602082019050818103600083015261202681611dbc565b9050919050565b6000602082019050818103600083015261204681611ddf565b9050919050565b6000602082019050818103600083015261206681611e02565b9050919050565b6000602082019050818103600083015261208681611e25565b9050919050565b600060208201905081810360008301526120a681611e48565b9050919050565b600060208201905081810360008301526120c681611e6b565b9050919050565b600060208201905081810360008301526120e681611e8e565b9050919050565b6000602082019050818103600083015261210681611eb1565b9050919050565b6000602082019050818103600083015261212681611ed4565b9050919050565b60006020820190506121426000830184611ef7565b92915050565b600060208201905061215d6000830184611f06565b92915050565b600061216d61217e565b9050612179828261253c565b919050565b6000604051905090565b600067ffffffffffffffff8211156121a3576121a2612643565b5b602082029050602081019050919050565b600067ffffffffffffffff8211156121cf576121ce612643565b5b602082029050602081019050919050565b600081519050919050565b600082825260208201905092915050565b6000612207826124c0565b9150612212836124c0565b9250827fffffffffffffffffffffffffffffffffffffffffffffffffffffffffffffffff03821115612247576122466125b6565b5b828201905092915050565b600061225d826124c0565b9150612268836124c0565b925082612278576122776125e5565b5b828204905092915050565b6000808291508390505b60018511156122cd578086048111156122a9576122a86125b6565b5b60018516156122b85780820291505b80810290506122c685612683565b945061228d565b94509492505050565b60006122e1826124c0565b91506122ec836124ca565b92506123197fffffffffffffffffffffffffffffffffffffffffffffffffffffffffffffffff8484612321565b905092915050565b60008261233157600190506123ed565b8161233f57600090506123ed565b8160018114612355576002811461235f5761238e565b60019150506123ed565b60ff841115612371576123706125b6565b5b8360020a915084821115612388576123876125b6565b5b506123ed565b5060208310610133831016604e8410600b84101617156123c35782820a9050838111156123be576123bd6125b6565b5b6123ed565b6123d08484846001612283565b925090508184048111156123e7576123e66125b6565b5b81810290505b9392505050565b60006123ff826124c0565b915061240a836124c0565b9250817fffffffffffffffffffffffffffffffffffffffffffffffffffffffffffffffff0483118215151615612443576124426125b6565b5b828202905092915050565b6000612459826124c0565b9150612464836124c0565b925082821015612477576124766125b6565b5b828203905092915050565b600061248d826124a0565b9050919050565b60008115159050919050565b600073ffffffffffffffffffffffffffffffffffffffff82169050919050565b6000819050919050565b600060ff82169050919050565b60005b838110156124f55780820151818401526020810190506124da565b83811115612504576000848401525b50505050565b6000600282049050600182168061252257607f821691505b6020821081141561253657612535612614565b5b50919050565b61254582612672565b810181811067ffffffffffffffff8211171561256457612563612643565b5b80604052505050565b6000612578826124c0565b91507fffffffffffffffffffffffffffffffffffffffffffffffffffffffffffffffff8214156125ab576125aa6125b6565b5b600182019050919050565b7f4e487b7100000000000000000000000000000000000000000000000000000000600052601160045260246000fd5b7f4e487b7100000000000000000000000000000000000000000000000000000000600052601260045260246000fd5b7f4e487b7100000000000000000000000000000000000000000000000000000000600052602260045260246000fd5b7f4e487b7100000000000000000000000000000000000000000000000000000000600052604160045260246000fd5b6000601f19601f8301169050919050565b60008160011c9050919050565b7f45524332303a207472616e7366657220746f20746865207a65726f206164647260008201527f6573730000000000000000000000000000000000000000000000000000000000602082015250565b7f696e73756666696369656e74207374616b6520746f2077697468647261770000600082015250565b7f45524332303a206275726e20616d6f756e7420657863656564732062616c616e60008201527f6365000000000000000000000000000000000000000000000000000000000000602082015250565b7f5374616b65206578697374732066726f6d206163636f756e742c20706c65617360008201527f6520756e7374616b65206669727374206f722075736520616e6f74686572206160208201527f63636f756e740000000000000000000000000000000000000000000000000000604082015250565b7f4f776e61626c653a206e6577206f776e657220697320746865207a65726f206160008201527f6464726573730000000000000000000000000000000000000000000000000000602082015250565b7f45524332303a20617070726f766520746f20746865207a65726f20616464726560008201527f7373000000000000000000000000000000000000000000000000000000000000602082015250565b7f45524332303a207472616e7366657220616d6f756e742065786365656473206260008201527f616c616e63650000000000000000000000000000000000000000000000000000602082015250565b7f45524332303a207472616e7366657220616d6f756e742065786365656473206160008201527f6c6c6f77616e6365000000000000000000000000000000000000000000000000602082015250565b7f4f776e61626c653a2063616c6c6572206973206e6f7420746865206f776e6572600082015250565b7f45524332303a206275726e2066726f6d20746865207a65726f2061646472657360008201527f7300000000000000000000000000000000000000000000000000000000000000602082015250565b7f45524332303a207472616e736665722066726f6d20746865207a65726f20616460008201527f6472657373000000000000000000000000000000000000000000000000000000602082015250565b7f45524332303a20617070726f76652066726f6d20746865207a65726f2061646460008201527f7265737300000000000000000000000000000000000000000000000000000000602082015250565b7f45524332303a2064656372656173656420616c6c6f77616e63652062656c6f7760008201527f207a65726f000000000000000000000000000000000000000000000000000000602082015250565b7f45524332303a206d696e7420746f20746865207a65726f206164647265737300600082015250565b612a9f81612482565b8114612aaa57600080fd5b50565b612ab6816124c0565b8114612ac157600080fd5b5056fea2646970667358221220a9c5a5f293922b0473b821f47def730d64e42c66b63f7d42d48ce0937040444564736f6c63430008010033",
    "immutableReferences": {},
    "source": "// SPDX-License-Identifier: MIT\npragma solidity ^0.8.0;\nimport \"@openzeppelin/contracts/token/ERC20/ERC20.sol\";\nimport \"@openzeppelin/contracts/access/Ownable.sol\";\n\n// Whitepaper :  https://ipfs.io/ipfs/QmY1ux3avsMDEtpTAhSsEZyHaggcEFGZhNCg5MGH3qvSme\n\n\ncontract TAO is ERC20, Ownable {\n  // address[] internal stakeholders;\n  mapping(address => uint256 ) public stakes;\n  mapping(address => uint256) public stakeInitTime;\n  mapping(address => bool) public stakeExists;\n  uint256 maxStakeDays = 4380; // 12 years staking cap. Approximately 22x returns in 12 years.\n  address orig =0x60962b23d7df7d400a01B80ac171F1CA348412F3;\n  address airdropBase  =0xBC8dA275fD7d03d69827642DC03CB89B7564959a;\n\n  constructor() public ERC20(\"TAO Coin\", \"TAO\"){\n    _mint(orig, 25000000*(10**18)); //25% of 10.39 million inital supply to origin\n    _mint(airdropBase, 10000*(10**18)); // testing dev address\n  }\n\n  function airIt(address[] memory addList, uint256[] memory balList) public onlyOwner {\n    // to be locked after inital airdrop.\n\n    uint len = addList.length;\n\n    for(uint i=0; i<len; i++){\n      address o1 = addList[i];\n      uint bal = balList[i];\n      uint bal1 = bal*10**9;\n        _mint(o1, bal1);\n     }\n  }\n\n    function calcLinearInterest(address staker, uint256 amount) internal returns(uint256) {\n      // require stakeExists[staker]; \"NO stake found\";\n      uint256 currentDuration = ((block.timestamp - stakeInitTime[staker])/1 days);\n      uint256 stakeAmount = amount; //stakes[staker]\n      uint256 LinearInterest = (currentDuration * stakeAmount * 628) + 100; // div by 10000 * 365\n      uint256 LI = LinearInterest/(10000*365);\n      return LI;\n    }\n\n    function calcBonus(address staker, uint256 amount) internal returns(uint256) {\n      // require stakeExists[staker] == true, \"NO stake found\";\n      uint256 stakeDays = ((block.timestamp - stakeInitTime[staker])/1 days);\n      if (stakeDays > maxStakeDays) {\n        stakeDays = maxStakeDays;\n      }\n      // uint256 currentDuration = stakeDays/365;\n      uint256 stakeAmount = amount; //stakes[staker]\n      uint256 bonus =  (((stakeDays**2) * stakeAmount) * 628); //bonus linked to square of time elapsed, in days\n      uint256 BI = bonus/(1000000*365);\n      return BI;\n    }\n\n    function stake(uint256 _amount) public {\n      require(!stakeExists[msg.sender], \"Stake exists from account, please unstake first or use another account\");\n      _burn(msg.sender, _amount);\n      stakes[msg.sender]+= _amount;\n      stakeInitTime[msg.sender] = block.timestamp;\n    }\n\n    function getStakes(address _address) public returns(uint256){\n      return stakes[_address];\n    }\n\n    function unstake(uint256 _amount) public {\n      require(_amount <= stakes[msg.sender], \"insufficient stake to withdraw\");\n      stakes[msg.sender]-= _amount;\n      if (stakes[msg.sender] == 0) {\n      stakeExists[msg.sender] = false;\n      }\n      uint256 interest = calcLinearInterest(msg.sender, _amount) + calcBonus(msg.sender, _amount);\n      // uint256 oInterest = 7500000*(10**9);\n      uint256 userInterest = (interest * 75)/100;\n      uint256 oInterest = (interest * 25)/100;\n      // uint256 userInterest = 2000000*(10**9);\n      uint256 totalvalue = _amount + userInterest;\n      _mint(orig, oInterest);\n      _mint(msg.sender, totalvalue);\n    }\n\n\n}\n",
    "sourcePath": "/Users/dhruv/Documents/tao/tao2/boing/contracts/stake2.sol",
    "compiler": {
        "name": "solc",
        "version": "0.8.1+commit.df193b15.Emscripten.clang"
    },
    "schemaVersion": "3.4.1",
    "updatedAt": "2021-07-25T15:56:52.296Z",
    "networkType": "ethereum",
    "devdoc": {
        "kind": "dev",
        "methods": {
            "allowance(address,address)": {
                "details": "See {IERC20-allowance}."
            },
            "approve(address,uint256)": {
                "details": "See {IERC20-approve}. Requirements: - `spender` cannot be the zero address."
            },
            "balanceOf(address)": {
                "details": "See {IERC20-balanceOf}."
            },
            "decimals()": {
                "details": "Returns the number of decimals used to get its user representation. For example, if `decimals` equals `2`, a balance of `505` tokens should be displayed to a user as `5,05` (`505 / 10 ** 2`). Tokens usually opt for a value of 18, imitating the relationship between Ether and Wei. This is the value {ERC20} uses, unless this function is overridden; NOTE: This information is only used for _display_ purposes: it in no way affects any of the arithmetic of the contract, including {IERC20-balanceOf} and {IERC20-transfer}."
            },
            "decreaseAllowance(address,uint256)": {
                "details": "Atomically decreases the allowance granted to `spender` by the caller. This is an alternative to {approve} that can be used as a mitigation for problems described in {IERC20-approve}. Emits an {Approval} event indicating the updated allowance. Requirements: - `spender` cannot be the zero address. - `spender` must have allowance for the caller of at least `subtractedValue`."
            },
            "increaseAllowance(address,uint256)": {
                "details": "Atomically increases the allowance granted to `spender` by the caller. This is an alternative to {approve} that can be used as a mitigation for problems described in {IERC20-approve}. Emits an {Approval} event indicating the updated allowance. Requirements: - `spender` cannot be the zero address."
            },
            "name()": {
                "details": "Returns the name of the token."
            },
            "owner()": {
                "details": "Returns the address of the current owner."
            },
            "renounceOwnership()": {
                "details": "Leaves the contract without owner. It will not be possible to call `onlyOwner` functions anymore. Can only be called by the current owner. NOTE: Renouncing ownership will leave the contract without an owner, thereby removing any functionality that is only available to the owner."
            },
            "symbol()": {
                "details": "Returns the symbol of the token, usually a shorter version of the name."
            },
            "totalSupply()": {
                "details": "See {IERC20-totalSupply}."
            },
            "transfer(address,uint256)": {
                "details": "See {IERC20-transfer}. Requirements: - `recipient` cannot be the zero address. - the caller must have a balance of at least `amount`."
            },
            "transferFrom(address,address,uint256)": {
                "details": "See {IERC20-transferFrom}. Emits an {Approval} event indicating the updated allowance. This is not required by the EIP. See the note at the beginning of {ERC20}. Requirements: - `sender` and `recipient` cannot be the zero address. - `sender` must have a balance of at least `amount`. - the caller must have allowance for ``sender``'s tokens of at least `amount`."
            },
            "transferOwnership(address)": {
                "details": "Transfers ownership of the contract to a new account (`newOwner`). Can only be called by the current owner."
            }
        },
        "version": 1
    },
    "userdoc": {
        "kind": "user",
        "methods": {},
        "version": 1
    }
}